{
  "_format": "hh-sol-artifact-1",
  "contractName": "Pool",
  "sourceName": "contracts/Pool.sol",
  "abi": [
    {
      "inputs": [
        {
          "internalType": "string",
          "name": "question_",
          "type": "string"
        },
        {
          "internalType": "string",
          "name": "description_",
          "type": "string"
        },
        {
          "internalType": "string",
          "name": "note_",
          "type": "string"
        },
        {
          "internalType": "address",
          "name": "registryAddress_",
          "type": "address"
        }
      ],
      "stateMutability": "nonpayable",
      "type": "constructor"
    },
    {
      "inputs": [
        {
          "internalType": "uint256",
          "name": "",
          "type": "uint256"
        }
      ],
      "name": "_betsPlayerAddresses",
      "outputs": [
        {
          "internalType": "address",
          "name": "",
          "type": "address"
        }
      ],
      "stateMutability": "view",
      "type": "function"
    },
    {
      "inputs": [],
      "name": "_created_at",
      "outputs": [
        {
          "internalType": "uint256",
          "name": "",
          "type": "uint256"
        }
      ],
      "stateMutability": "view",
      "type": "function"
    },
    {
      "inputs": [],
      "name": "_description",
      "outputs": [
        {
          "internalType": "string",
          "name": "",
          "type": "string"
        }
      ],
      "stateMutability": "view",
      "type": "function"
    },
    {
      "inputs": [],
      "name": "_note",
      "outputs": [
        {
          "internalType": "string",
          "name": "",
          "type": "string"
        }
      ],
      "stateMutability": "view",
      "type": "function"
    },
    {
      "inputs": [],
      "name": "_published_at",
      "outputs": [
        {
          "internalType": "uint256",
          "name": "",
          "type": "uint256"
        }
      ],
      "stateMutability": "view",
      "type": "function"
    },
    {
      "inputs": [],
      "name": "_question",
      "outputs": [
        {
          "internalType": "string",
          "name": "",
          "type": "string"
        }
      ],
      "stateMutability": "view",
      "type": "function"
    },
    {
      "inputs": [],
      "name": "_registryAddress",
      "outputs": [
        {
          "internalType": "address",
          "name": "",
          "type": "address"
        }
      ],
      "stateMutability": "view",
      "type": "function"
    },
    {
      "inputs": [],
      "name": "_resolvedAnswer",
      "outputs": [
        {
          "internalType": "enum Pool.ResolvedAnswers",
          "name": "",
          "type": "uint8"
        }
      ],
      "stateMutability": "view",
      "type": "function"
    },
    {
      "inputs": [],
      "name": "_resolved_at",
      "outputs": [
        {
          "internalType": "uint256",
          "name": "",
          "type": "uint256"
        }
      ],
      "stateMutability": "view",
      "type": "function"
    },
    {
      "inputs": [],
      "name": "_status",
      "outputs": [
        {
          "internalType": "enum Pool.PoolStatuses",
          "name": "",
          "type": "uint8"
        }
      ],
      "stateMutability": "view",
      "type": "function"
    },
    {
      "inputs": [
        {
          "internalType": "uint256",
          "name": "answer_",
          "type": "uint256"
        }
      ],
      "name": "bet",
      "outputs": [],
      "stateMutability": "payable",
      "type": "function"
    },
    {
      "inputs": [],
      "name": "betAddresses",
      "outputs": [
        {
          "internalType": "address[]",
          "name": "",
          "type": "address[]"
        }
      ],
      "stateMutability": "view",
      "type": "function"
    },
    {
      "inputs": [],
      "name": "bets",
      "outputs": [
        {
          "components": [
            {
              "internalType": "enum Pool.Answers",
              "name": "answer",
              "type": "uint8"
            },
            {
              "internalType": "uint256",
              "name": "value",
              "type": "uint256"
            },
            {
              "internalType": "enum Pool.BetStatuses",
              "name": "status",
              "type": "uint8"
            },
            {
              "internalType": "uint256",
              "name": "created_at",
              "type": "uint256"
            }
          ],
          "internalType": "struct Pool.Bet[]",
          "name": "",
          "type": "tuple[]"
        }
      ],
      "stateMutability": "view",
      "type": "function"
    },
    {
      "inputs": [],
      "name": "claim",
      "outputs": [],
      "stateMutability": "nonpayable",
      "type": "function"
    },
    {
      "inputs": [],
      "name": "getBalance",
      "outputs": [
        {
          "internalType": "uint256",
          "name": "",
          "type": "uint256"
        }
      ],
      "stateMutability": "view",
      "type": "function"
    },
    {
      "inputs": [
        {
          "internalType": "uint256",
          "name": "page_",
          "type": "uint256"
        },
        {
          "internalType": "uint256",
          "name": "limit_",
          "type": "uint256"
        }
      ],
      "name": "getBetsPaginatedReverse",
      "outputs": [
        {
          "components": [
            {
              "internalType": "enum Pool.Answers",
              "name": "answer",
              "type": "uint8"
            },
            {
              "internalType": "uint256",
              "name": "value",
              "type": "uint256"
            },
            {
              "internalType": "enum Pool.BetStatuses",
              "name": "status",
              "type": "uint8"
            },
            {
              "internalType": "uint256",
              "name": "created_at",
              "type": "uint256"
            }
          ],
          "internalType": "struct Pool.Bet[]",
          "name": "",
          "type": "tuple[]"
        }
      ],
      "stateMutability": "view",
      "type": "function"
    },
    {
      "inputs": [],
      "name": "publish",
      "outputs": [],
      "stateMutability": "nonpayable",
      "type": "function"
    },
    {
      "inputs": [
        {
          "internalType": "uint256",
          "name": "answer_",
          "type": "uint256"
        }
      ],
      "name": "resolve",
      "outputs": [],
      "stateMutability": "nonpayable",
      "type": "function"
    },
    {
      "stateMutability": "payable",
      "type": "receive"
    }
  ],
  "bytecode": "0x60806040523480156200001157600080fd5b506040516200255d3803806200255d833981810160405281019062000037919062000312565b83600190816200004891906200062c565b5082600290816200005a91906200062c565b5081600390816200006c91906200062c565b506000600460006101000a81548160ff0219169083600481111562000096576200009562000713565b5b02179055506002600460016101000a81548160ff02191690836002811115620000c457620000c362000713565b5b021790555042600881905550806000806101000a81548173ffffffffffffffffffffffffffffffffffffffff021916908373ffffffffffffffffffffffffffffffffffffffff1602179055505050505062000742565b6000604051905090565b600080fd5b600080fd5b600080fd5b600080fd5b6000601f19601f8301169050919050565b7f4e487b7100000000000000000000000000000000000000000000000000000000600052604160045260246000fd5b620001838262000138565b810181811067ffffffffffffffff82111715620001a557620001a462000149565b5b80604052505050565b6000620001ba6200011a565b9050620001c8828262000178565b919050565b600067ffffffffffffffff821115620001eb57620001ea62000149565b5b620001f68262000138565b9050602081019050919050565b60005b838110156200022357808201518184015260208101905062000206565b60008484015250505050565b6000620002466200024084620001cd565b620001ae565b90508281526020810184848401111562000265576200026462000133565b5b6200027284828562000203565b509392505050565b600082601f8301126200029257620002916200012e565b5b8151620002a48482602086016200022f565b91505092915050565b600073ffffffffffffffffffffffffffffffffffffffff82169050919050565b6000620002da82620002ad565b9050919050565b620002ec81620002cd565b8114620002f857600080fd5b50565b6000815190506200030c81620002e1565b92915050565b600080600080608085870312156200032f576200032e62000124565b5b600085015167ffffffffffffffff81111562000350576200034f62000129565b5b6200035e878288016200027a565b945050602085015167ffffffffffffffff81111562000382576200038162000129565b5b62000390878288016200027a565b935050604085015167ffffffffffffffff811115620003b457620003b362000129565b5b620003c2878288016200027a565b9250506060620003d587828801620002fb565b91505092959194509250565b600081519050919050565b7f4e487b7100000000000000000000000000000000000000000000000000000000600052602260045260246000fd5b600060028204905060018216806200043457607f821691505b6020821081036200044a5762000449620003ec565b5b50919050565b60008190508160005260206000209050919050565b60006020601f8301049050919050565b600082821b905092915050565b600060088302620004b47fffffffffffffffffffffffffffffffffffffffffffffffffffffffffffffffff8262000475565b620004c0868362000475565b95508019841693508086168417925050509392505050565b6000819050919050565b6000819050919050565b60006200050d620005076200050184620004d8565b620004e2565b620004d8565b9050919050565b6000819050919050565b6200052983620004ec565b62000541620005388262000514565b84845462000482565b825550505050565b600090565b6200055862000549565b620005658184846200051e565b505050565b5b818110156200058d57620005816000826200054e565b6001810190506200056b565b5050565b601f821115620005dc57620005a68162000450565b620005b18462000465565b81016020851015620005c1578190505b620005d9620005d08562000465565b8301826200056a565b50505b505050565b600082821c905092915050565b60006200060160001984600802620005e1565b1980831691505092915050565b60006200061c8383620005ee565b9150826002028217905092915050565b6200063782620003e1565b67ffffffffffffffff81111562000653576200065262000149565b5b6200065f82546200041b565b6200066c82828562000591565b600060209050601f831160018114620006a457600084156200068f578287015190505b6200069b85826200060e565b8655506200070b565b601f198416620006b48662000450565b60005b82811015620006de57848901518255600182019150602085019450602081019050620006b7565b86831015620006fe5784890151620006fa601f891682620005ee565b8355505b6001600288020188555050505b505050505050565b7f4e487b7100000000000000000000000000000000000000000000000000000000600052602160045260246000fd5b611e0b80620007526000396000f3fe60806040526004361061010d5760003560e01c80635194ec381161009557806393cdc2f31161006457806393cdc2f31461036057806398c2b8611461038b578063cfa84dfe146103b6578063f8547079146103e1578063fd9d497f1461040c57610153565b80635194ec38146102b1578063561dd002146102dc5780637365870b146103195780638299c74c1461033557610153565b80630fb3844c116100dc5780630fb3844c146101f057806312065fe01461021b5780633e885cfa146102465780634e71d92d146102715780634f896d4f1461028857610153565b8063075d478214610158578063080708b71461016f5780630a710b881461019a5780630e8cd9ea146101c557610153565b36610153576101516040518060400160405280600481526020017f594f594f0000000000000000000000000000000000000000000000000000000081525047610449565b005b600080fd5b34801561016457600080fd5b5061016d6104e5565b005b34801561017b57600080fd5b50610184610519565b604051610191919061156c565b60405180910390f35b3480156101a657600080fd5b506101af6105a7565b6040516101bc919061176a565b60405180910390f35b3480156101d157600080fd5b506101da610761565b6040516101e791906117cd565b60405180910390f35b3480156101fc57600080fd5b50610205610785565b6040516102129190611830565b60405180910390f35b34801561022757600080fd5b50610230610798565b60405161023d919061185a565b60405180910390f35b34801561025257600080fd5b5061025b6107a0565b604051610268919061156c565b60405180910390f35b34801561027d57600080fd5b5061028661082e565b005b34801561029457600080fd5b506102af60048036038101906102aa91906118a6565b610994565b005b3480156102bd57600080fd5b506102c6610afd565b6040516102d3919061185a565b60405180910390f35b3480156102e857600080fd5b5061030360048036038101906102fe91906118a6565b610b03565b60405161031091906117cd565b60405180910390f35b610333600480360381019061032e91906118a6565b610b42565b005b34801561034157600080fd5b5061034a610dc2565b604051610357919061191b565b60405180910390f35b34801561036c57600080fd5b50610375610dd5565b604051610382919061185a565b60405180910390f35b34801561039757600080fd5b506103a0610ddb565b6040516103ad91906119f4565b60405180910390f35b3480156103c257600080fd5b506103cb610e69565b6040516103d8919061156c565b60405180910390f35b3480156103ed57600080fd5b506103f6610ef7565b604051610403919061185a565b60405180910390f35b34801561041857600080fd5b50610433600480360381019061042e9190611a16565b610efd565b604051610440919061176a565b60405180910390f35b6104e1828260405160240161045f929190611a56565b6040516020818303038152906040527fb60e72cc000000000000000000000000000000000000000000000000000000007bffffffffffffffffffffffffffffffffffffffffffffffffffffffff19166020820180517bffffffffffffffffffffffffffffffffffffffffffffffffffffffff83818316178352505050506113ce565b5050565b6001600460006101000a81548160ff0219169083600481111561050b5761050a6115ba565b5b021790555042600781905550565b6003805461052690611ab5565b80601f016020809104026020016040519081016040528092919081815260200182805461055290611ab5565b801561059f5780601f106105745761010080835404028352916020019161059f565b820191906000526020600020905b81548152906001019060200180831161058257829003601f168201915b505050505081565b6060600060068054905067ffffffffffffffff8111156105ca576105c9611ae6565b5b60405190808252806020026020018201604052801561060357816020015b6105f0611490565b8152602001906001900390816105e85790505b50905060005b60068054905081101561075957600560006006838154811061062e5761062d611b15565b5b9060005260206000200160009054906101000a900473ffffffffffffffffffffffffffffffffffffffff1673ffffffffffffffffffffffffffffffffffffffff1673ffffffffffffffffffffffffffffffffffffffff1681526020019081526020016000206040518060800160405290816000820160009054906101000a900460ff1660018111156106c3576106c26115ba565b5b60018111156106d5576106d46115ba565b5b8152602001600182015481526020016002820160009054906101000a900460ff166002811115610708576107076115ba565b5b600281111561071a576107196115ba565b5b815260200160038201548152505082828151811061073b5761073a611b15565b5b6020026020010181905250808061075190611b73565b915050610609565b508091505090565b60008054906101000a900473ffffffffffffffffffffffffffffffffffffffff1681565b600460009054906101000a900460ff1681565b600047905090565b600180546107ad90611ab5565b80601f01602080910402602001604051908101604052809291908181526020018280546107d990611ab5565b80156108265780601f106107fb57610100808354040283529160200191610826565b820191906000526020600020905b81548152906001019060200180831161080957829003601f168201915b505050505081565b600460019054906101000a900460ff1660028111156108505761084f6115ba565b5b6001811115610862576108616115ba565b5b6001811115610874576108736115ba565b5b600560003373ffffffffffffffffffffffffffffffffffffffff1673ffffffffffffffffffffffffffffffffffffffff16815260200190815260200160002060000160009054906101000a900460ff1660018111156108d6576108d56115ba565b5b03610992576000803373ffffffffffffffffffffffffffffffffffffffff166509184e72a00060405161090890611bec565b60006040518083038185875af1925050503d8060008114610945576040519150601f19603f3d011682016040523d82523d6000602084013e61094a565b606091505b50915091508161098f576040517f08c379a000000000000000000000000000000000000000000000000000000000815260040161098690611c4d565b60405180910390fd5b50505b565b6002600460006101000a81548160ff021916908360048111156109ba576109b96115ba565b5b02179055508060028111156109d2576109d16115ba565b5b600460016101000a81548160ff021916908360028111156109f6576109f56115ba565b5b021790555060008060008054906101000a900473ffffffffffffffffffffffffffffffffffffffff1673ffffffffffffffffffffffffffffffffffffffff16633b9aca00604051610a4690611bec565b60006040518083038185875af1925050503d8060008114610a83576040519150601f19603f3d011682016040523d82523d6000602084013e610a88565b606091505b509150915081610acd576040517f08c379a0000000000000000000000000000000000000000000000000000000008152600401610ac490611c4d565b60405180910390fd5b6003600460006101000a81548160ff02191690836004811115610af357610af26115ba565b5b0217905550505050565b60075481565b60068181548110610b1357600080fd5b906000526020600020016000915054906101000a900473ffffffffffffffffffffffffffffffffffffffff1681565b6001610b83576040517f08c379a0000000000000000000000000000000000000000000000000000000008152600401610b7a90611cb9565b60405180910390fd5b60006040518060800160405280836001811115610ba357610ba26115ba565b5b6001811115610bb557610bb46115ba565b5b815260200134815260200160006002811115610bd457610bd36115ba565b5b8152602001428152509050600181604001906002811115610bf857610bf76115ba565b5b90816002811115610c0c57610c0b6115ba565b5b815250506006339080600181540180825580915050600190039060005260206000200160009091909190916101000a81548173ffffffffffffffffffffffffffffffffffffffff021916908373ffffffffffffffffffffffffffffffffffffffff16021790555080600560003373ffffffffffffffffffffffffffffffffffffffff1673ffffffffffffffffffffffffffffffffffffffff16815260200190815260200160002060008201518160000160006101000a81548160ff02191690836001811115610cde57610cdd6115ba565b5b02179055506020820151816001015560408201518160020160006101000a81548160ff02191690836002811115610d1857610d176115ba565b5b02179055506060820151816003015590505060008060009054906101000a900473ffffffffffffffffffffffffffffffffffffffff1690508073ffffffffffffffffffffffffffffffffffffffff1663f8a66b0933306040518363ffffffff1660e01b8152600401610d8b929190611cd9565b600060405180830381600087803b158015610da557600080fd5b505af1158015610db9573d6000803e3d6000fd5b50505050505050565b600460019054906101000a900460ff1681565b60095481565b60606006805480602002602001604051908101604052809291908181526020018280548015610e5f57602002820191906000526020600020905b8160009054906101000a900473ffffffffffffffffffffffffffffffffffffffff1673ffffffffffffffffffffffffffffffffffffffff1681526020019060010190808311610e15575b5050505050905090565b60028054610e7690611ab5565b80601f0160208091040260200160405190810160405280929190818152602001828054610ea290611ab5565b8015610eef5780601f10610ec457610100808354040283529160200191610eef565b820191906000526020600020905b815481529060010190602001808311610ed257829003601f168201915b505050505081565b60085481565b60606000600680549050905060008103610f6e57600067ffffffffffffffff811115610f2c57610f2b611ae6565b5b604051908082528060200260200182016040528015610f6557816020015b610f52611490565b815260200190600190039081610f4a5790505b509150506113c8565b60008385610f7c9190611d02565b90508082108015610f975750838282610f959190611d44565b115b15610ffa57600067ffffffffffffffff811115610fb757610fb6611ae6565b5b604051908082528060200260200182016040528015610ff057816020015b610fdd611490565b815260200190600190039081610fd55790505b50925050506113c8565b600081831061101457818361100f9190611d44565b611017565b60005b9050600082841061103f5760018661102f9190611d44565b8261103a9190611d78565b611063565b838361104b9190611d44565b6001876110589190611d44565b6110629190611d44565b5b905061106e816113f7565b611077826113f7565b6000600183836110879190611d44565b6110919190611d78565b67ffffffffffffffff8111156110aa576110a9611ae6565b5b6040519080825280602002602001820160405280156110e357816020015b6110d0611490565b8152602001906001900390816110c85790505b509050600083836110f49190611d44565b0361122f57600560006006848154811061111157611110611b15565b5b9060005260206000200160009054906101000a900473ffffffffffffffffffffffffffffffffffffffff1673ffffffffffffffffffffffffffffffffffffffff1673ffffffffffffffffffffffffffffffffffffffff1681526020019081526020016000206040518060800160405290816000820160009054906101000a900460ff1660018111156111a6576111a56115ba565b5b60018111156111b8576111b76115ba565b5b8152602001600182015481526020016002820160009054906101000a900460ff1660028111156111eb576111ea6115ba565b5b60028111156111fd576111fc6115ba565b5b81526020016003820154815250508160008151811061121f5761121e611b15565b5b60200260200101819052506113bf565b60008060018461123f9190611d78565b90505b60018561124f9190611d78565b81106113bc5761125e816113f7565b6005600060066001846112719190611d44565b8154811061128257611281611b15565b5b9060005260206000200160009054906101000a900473ffffffffffffffffffffffffffffffffffffffff1673ffffffffffffffffffffffffffffffffffffffff1673ffffffffffffffffffffffffffffffffffffffff1681526020019081526020016000206040518060800160405290816000820160009054906101000a900460ff166001811115611317576113166115ba565b5b6001811115611329576113286115ba565b5b8152602001600182015481526020016002820160009054906101000a900460ff16600281111561135c5761135b6115ba565b5b600281111561136e5761136d6115ba565b5b815260200160038201548152505083838151811061138f5761138e611b15565b5b60200260200101819052506001826113a79190611d78565b915080806113b490611dac565b915050611242565b50505b80955050505050505b92915050565b60008151905060006a636f6e736f6c652e6c6f679050602083016000808483855afa5050505050565b61148d8160405160240161140b919061185a565b6040516020818303038152906040527ff82c50f1000000000000000000000000000000000000000000000000000000007bffffffffffffffffffffffffffffffffffffffffffffffffffffffff19166020820180517bffffffffffffffffffffffffffffffffffffffffffffffffffffffff83818316178352505050506113ce565b50565b6040518060800160405280600060018111156114af576114ae6115ba565b5b815260200160008152602001600060028111156114cf576114ce6115ba565b5b8152602001600081525090565b600081519050919050565b600082825260208201905092915050565b60005b838110156115165780820151818401526020810190506114fb565b60008484015250505050565b6000601f19601f8301169050919050565b600061153e826114dc565b61154881856114e7565b93506115588185602086016114f8565b61156181611522565b840191505092915050565b600060208201905081810360008301526115868184611533565b905092915050565b600081519050919050565b600082825260208201905092915050565b6000819050602082019050919050565b7f4e487b7100000000000000000000000000000000000000000000000000000000600052602160045260246000fd5b600281106115fa576115f96115ba565b5b50565b600081905061160b826115e9565b919050565b600061161b826115fd565b9050919050565b61162b81611610565b82525050565b6000819050919050565b61164481611631565b82525050565b6003811061165b5761165a6115ba565b5b50565b600081905061166c8261164a565b919050565b600061167c8261165e565b9050919050565b61168c81611671565b82525050565b6080820160008201516116a86000850182611622565b5060208201516116bb602085018261163b565b5060408201516116ce6040850182611683565b5060608201516116e1606085018261163b565b50505050565b60006116f38383611692565b60808301905092915050565b6000602082019050919050565b60006117178261158e565b6117218185611599565b935061172c836115aa565b8060005b8381101561175d57815161174488826116e7565b975061174f836116ff565b925050600181019050611730565b5085935050505092915050565b60006020820190508181036000830152611784818461170c565b905092915050565b600073ffffffffffffffffffffffffffffffffffffffff82169050919050565b60006117b78261178c565b9050919050565b6117c7816117ac565b82525050565b60006020820190506117e260008301846117be565b92915050565b600581106117f9576117f86115ba565b5b50565b600081905061180a826117e8565b919050565b600061181a826117fc565b9050919050565b61182a8161180f565b82525050565b60006020820190506118456000830184611821565b92915050565b61185481611631565b82525050565b600060208201905061186f600083018461184b565b92915050565b600080fd5b61188381611631565b811461188e57600080fd5b50565b6000813590506118a08161187a565b92915050565b6000602082840312156118bc576118bb611875565b5b60006118ca84828501611891565b91505092915050565b600381106118e4576118e36115ba565b5b50565b60008190506118f5826118d3565b919050565b6000611905826118e7565b9050919050565b611915816118fa565b82525050565b6000602082019050611930600083018461190c565b92915050565b600081519050919050565b600082825260208201905092915050565b6000819050602082019050919050565b61196b816117ac565b82525050565b600061197d8383611962565b60208301905092915050565b6000602082019050919050565b60006119a182611936565b6119ab8185611941565b93506119b683611952565b8060005b838110156119e75781516119ce8882611971565b97506119d983611989565b9250506001810190506119ba565b5085935050505092915050565b60006020820190508181036000830152611a0e8184611996565b905092915050565b60008060408385031215611a2d57611a2c611875565b5b6000611a3b85828601611891565b9250506020611a4c85828601611891565b9150509250929050565b60006040820190508181036000830152611a708185611533565b9050611a7f602083018461184b565b9392505050565b7f4e487b7100000000000000000000000000000000000000000000000000000000600052602260045260246000fd5b60006002820490506001821680611acd57607f821691505b602082108103611ae057611adf611a86565b5b50919050565b7f4e487b7100000000000000000000000000000000000000000000000000000000600052604160045260246000fd5b7f4e487b7100000000000000000000000000000000000000000000000000000000600052603260045260246000fd5b7f4e487b7100000000000000000000000000000000000000000000000000000000600052601160045260246000fd5b6000611b7e82611631565b91507fffffffffffffffffffffffffffffffffffffffffffffffffffffffffffffffff8203611bb057611baf611b44565b5b600182019050919050565b600081905092915050565b50565b6000611bd6600083611bbb565b9150611be182611bc6565b600082019050919050565b6000611bf782611bc9565b9150819050919050565b7f4661696c656420746f2073656e64204574686572000000000000000000000000600082015250565b6000611c376014836114e7565b9150611c4282611c01565b602082019050919050565b60006020820190508181036000830152611c6681611c2a565b9050919050565b7f596f752063616e206e6f7420626574206f6e207468697320706f6f6c00000000600082015250565b6000611ca3601c836114e7565b9150611cae82611c6d565b602082019050919050565b60006020820190508181036000830152611cd281611c96565b9050919050565b6000604082019050611cee60008301856117be565b611cfb60208301846117be565b9392505050565b6000611d0d82611631565b9150611d1883611631565b9250828202611d2681611631565b91508282048414831517611d3d57611d3c611b44565b5b5092915050565b6000611d4f82611631565b9150611d5a83611631565b9250828203905081811115611d7257611d71611b44565b5b92915050565b6000611d8382611631565b9150611d8e83611631565b9250828201905080821115611da657611da5611b44565b5b92915050565b6000611db782611631565b915060008203611dca57611dc9611b44565b5b60018203905091905056fea2646970667358221220dcdc19e6c0a9a5c47934016b1477cfda7bbd47688221c703cf037d5226dcb1a264736f6c63430008110033",
  "linkReferences": {},
  "deployedLinkReferences": {}
}