{
  "_format": "hh-sol-artifact-1",
  "contractName": "PoolRegistry",
  "sourceName": "contracts/PoolRegistry.sol",
  "abi": [
    {
      "anonymous": false,
      "inputs": [
        {
          "indexed": true,
          "internalType": "address",
          "name": "previousOwner",
          "type": "address"
        },
        {
          "indexed": true,
          "internalType": "address",
          "name": "newOwner",
          "type": "address"
        }
      ],
      "name": "OwnershipTransferred",
      "type": "event"
    },
    {
      "anonymous": false,
      "inputs": [],
      "name": "PoolCreated",
      "type": "event"
    },
    {
      "inputs": [
        {
          "internalType": "uint256",
          "name": "",
          "type": "uint256"
        }
      ],
      "name": "_pools",
      "outputs": [
        {
          "internalType": "address payable",
          "name": "",
          "type": "address"
        }
      ],
      "stateMutability": "view",
      "type": "function"
    },
    {
      "inputs": [
        {
          "internalType": "address",
          "name": "",
          "type": "address"
        },
        {
          "internalType": "uint256",
          "name": "",
          "type": "uint256"
        }
      ],
      "name": "_poolsByBetters",
      "outputs": [
        {
          "internalType": "address",
          "name": "",
          "type": "address"
        }
      ],
      "stateMutability": "view",
      "type": "function"
    },
    {
      "inputs": [
        {
          "internalType": "address",
          "name": "",
          "type": "address"
        }
      ],
      "name": "_whiteListAddresses",
      "outputs": [
        {
          "internalType": "bool",
          "name": "",
          "type": "bool"
        }
      ],
      "stateMutability": "view",
      "type": "function"
    },
    {
      "inputs": [
        {
          "internalType": "address",
          "name": "address_",
          "type": "address"
        }
      ],
      "name": "canBet",
      "outputs": [
        {
          "internalType": "bool",
          "name": "",
          "type": "bool"
        }
      ],
      "stateMutability": "view",
      "type": "function"
    },
    {
      "inputs": [
        {
          "internalType": "string",
          "name": "question_",
          "type": "string"
        },
        {
          "internalType": "string",
          "name": "description_",
          "type": "string"
        },
        {
          "internalType": "string",
          "name": "note_",
          "type": "string"
        }
      ],
      "name": "createPool",
      "outputs": [],
      "stateMutability": "nonpayable",
      "type": "function"
    },
    {
      "inputs": [
        {
          "internalType": "address",
          "name": "poolAddress_",
          "type": "address"
        }
      ],
      "name": "getPoolByAddress",
      "outputs": [
        {
          "internalType": "string",
          "name": "question",
          "type": "string"
        },
        {
          "internalType": "string",
          "name": "description",
          "type": "string"
        },
        {
          "internalType": "string",
          "name": "note",
          "type": "string"
        },
        {
          "internalType": "enum Pool.PoolStatuses",
          "name": "status",
          "type": "uint8"
        },
        {
          "internalType": "enum Pool.ResolvedAnswers",
          "name": "resolvedAnswer",
          "type": "uint8"
        },
        {
          "internalType": "uint256",
          "name": "_created_at",
          "type": "uint256"
        },
        {
          "internalType": "uint256",
          "name": "published_at",
          "type": "uint256"
        },
        {
          "internalType": "uint256",
          "name": "resolved_at",
          "type": "uint256"
        }
      ],
      "stateMutability": "view",
      "type": "function"
    },
    {
      "inputs": [
        {
          "internalType": "uint256",
          "name": "poolId_",
          "type": "uint256"
        }
      ],
      "name": "getPoolById",
      "outputs": [
        {
          "internalType": "string",
          "name": "question",
          "type": "string"
        },
        {
          "internalType": "string",
          "name": "description",
          "type": "string"
        },
        {
          "internalType": "string",
          "name": "note",
          "type": "string"
        },
        {
          "internalType": "enum Pool.PoolStatuses",
          "name": "status",
          "type": "uint8"
        },
        {
          "internalType": "enum Pool.ResolvedAnswers",
          "name": "resolvedAnswer",
          "type": "uint8"
        },
        {
          "internalType": "address[]",
          "name": "betsPlayerAddresses",
          "type": "address[]"
        },
        {
          "internalType": "uint256",
          "name": "created_at",
          "type": "uint256"
        },
        {
          "internalType": "uint256",
          "name": "published_at",
          "type": "uint256"
        },
        {
          "internalType": "uint256",
          "name": "resolved_at",
          "type": "uint256"
        },
        {
          "internalType": "address",
          "name": "poolAddress",
          "type": "address"
        },
        {
          "internalType": "uint256",
          "name": "balance",
          "type": "uint256"
        }
      ],
      "stateMutability": "view",
      "type": "function"
    },
    {
      "inputs": [],
      "name": "getPools",
      "outputs": [
        {
          "internalType": "address[]",
          "name": "",
          "type": "address[]"
        }
      ],
      "stateMutability": "view",
      "type": "function"
    },
    {
      "inputs": [
        {
          "internalType": "address",
          "name": "playerAddress_",
          "type": "address"
        }
      ],
      "name": "getPoolsOfPlayer",
      "outputs": [
        {
          "internalType": "address[]",
          "name": "",
          "type": "address[]"
        }
      ],
      "stateMutability": "view",
      "type": "function"
    },
    {
      "inputs": [
        {
          "internalType": "uint256",
          "name": "page_",
          "type": "uint256"
        },
        {
          "internalType": "uint256",
          "name": "limit_",
          "type": "uint256"
        }
      ],
      "name": "getPoolsPaginatedReverse",
      "outputs": [
        {
          "internalType": "address[]",
          "name": "",
          "type": "address[]"
        }
      ],
      "stateMutability": "view",
      "type": "function"
    },
    {
      "inputs": [],
      "name": "owner",
      "outputs": [
        {
          "internalType": "address",
          "name": "",
          "type": "address"
        }
      ],
      "stateMutability": "view",
      "type": "function"
    },
    {
      "inputs": [
        {
          "internalType": "uint256",
          "name": "poolId_",
          "type": "uint256"
        }
      ],
      "name": "publishPool",
      "outputs": [],
      "stateMutability": "nonpayable",
      "type": "function"
    },
    {
      "inputs": [
        {
          "internalType": "address",
          "name": "poolAddress_",
          "type": "address"
        }
      ],
      "name": "publishPoolByAddress",
      "outputs": [],
      "stateMutability": "nonpayable",
      "type": "function"
    },
    {
      "inputs": [],
      "name": "renounceOwnership",
      "outputs": [],
      "stateMutability": "nonpayable",
      "type": "function"
    },
    {
      "inputs": [
        {
          "internalType": "address",
          "name": "playerAddress_",
          "type": "address"
        },
        {
          "internalType": "address",
          "name": "poolAddress_",
          "type": "address"
        }
      ],
      "name": "setBetter",
      "outputs": [],
      "stateMutability": "nonpayable",
      "type": "function"
    },
    {
      "inputs": [
        {
          "internalType": "uint256",
          "name": "modeId_",
          "type": "uint256"
        }
      ],
      "name": "setMode",
      "outputs": [],
      "stateMutability": "nonpayable",
      "type": "function"
    },
    {
      "inputs": [
        {
          "internalType": "address",
          "name": "newOwner",
          "type": "address"
        }
      ],
      "name": "transferOwnership",
      "outputs": [],
      "stateMutability": "nonpayable",
      "type": "function"
    },
    {
      "inputs": [
        {
          "internalType": "address[]",
          "name": "addresses_",
          "type": "address[]"
        }
      ],
      "name": "whiteList",
      "outputs": [],
      "stateMutability": "nonpayable",
      "type": "function"
    },
    {
      "stateMutability": "payable",
      "type": "receive"
    }
  ],
  "bytecode": "0x60806040523480156200001157600080fd5b5062000032620000266200003860201b60201c565b6200004060201b60201c565b62000104565b600033905090565b60008060009054906101000a900473ffffffffffffffffffffffffffffffffffffffff169050816000806101000a81548173ffffffffffffffffffffffffffffffffffffffff021916908373ffffffffffffffffffffffffffffffffffffffff1602179055508173ffffffffffffffffffffffffffffffffffffffff168173ffffffffffffffffffffffffffffffffffffffff167f8be0079c531659141344cd1fd0a4f28419497f9722a3daafe3b4186f6b6457e060405160405180910390a35050565b6153bf80620001146000396000f3fe608060405260043610620001275760003560e01c806391c5f4a611620000a3578063d72dd3b4116200006d578063d72dd3b41462000450578063e4b2fea4146200047e578063e6f98f0614620004c2578063f2fde38b1462000506578063f8a66b0914620005345762000170565b806391c5f4a614620003825780639fe11a8714620003b0578063b0ed445014620003de578063bf3e0cf0146200040c5762000170565b806349f73c7511620000f157806349f73c751462000296578063673a2a1f14620002c4578063715018a614620002f457806374117ea4146200030e5780638da5cb5b14620003525762000170565b80630bc59b3814620001755780632b235e3214620001c3578063369fef0f146200020e5780633997663c14620002525762000170565b3662000170576200016e6040518060400160405280600481526020017f594f594f000000000000000000000000000000000000000000000000000000008152504762000562565b005b600080fd5b3480156200018257600080fd5b50620001a160048036038101906200019b919062001df6565b62000602565b604051620001ba9b9a99989796959493929190620020b7565b60405180910390f35b348015620001d057600080fd5b50620001ef6004803603810190620001e99190620021c5565b62000b48565b60405162000205989796959493929190620021f7565b60405180910390f35b3480156200021b57600080fd5b506200023a6004803603810190620002349190620021c5565b62000f14565b604051620002499190620022b7565b60405180910390f35b3480156200025f57600080fd5b506200027e600480360381019062000278919062001df6565b62000fbd565b6040516200028d9190620022f9565b60405180910390f35b348015620002a357600080fd5b50620002c26004803603810190620002bc919062001df6565b62000ff0565b005b348015620002d157600080fd5b50620002dc62001135565b604051620002eb919062002316565b60405180910390f35b3480156200030157600080fd5b506200030c62001245565b005b3480156200031b57600080fd5b506200033a60048036038101906200033491906200233a565b6200125d565b60405162000349919062002381565b60405180910390f35b3480156200035f57600080fd5b506200036a620012ac565b60405162000379919062002381565b60405180910390f35b3480156200038f57600080fd5b50620003ae6004803603810190620003a8919062002502565b620012d5565b005b348015620003bd57600080fd5b50620003dc6004803603810190620003d69190620021c5565b6200137b565b005b348015620003eb57600080fd5b506200040a60048036038101906200040491906200261b565b620013e6565b005b3480156200041957600080fd5b50620004386004803603810190620004329190620026d4565b620014d5565b60405162000447919062002316565b60405180910390f35b3480156200045d57600080fd5b506200047c600480360381019062000476919062001df6565b62001879565b005b3480156200048b57600080fd5b50620004aa6004803603810190620004a49190620021c5565b620018c8565b604051620004b99190620022b7565b60405180910390f35b348015620004cf57600080fd5b50620004ee6004803603810190620004e89190620021c5565b620018e8565b604051620004fd919062002316565b60405180910390f35b3480156200051357600080fd5b506200053260048036038101906200052c9190620021c5565b620019b7565b005b3480156200054157600080fd5b506200056060048036038101906200055a91906200271b565b62001a41565b005b620005fe82826040516024016200057b92919062002762565b6040516020818303038152906040527fb60e72cc000000000000000000000000000000000000000000000000000000007bffffffffffffffffffffffffffffffffffffffffffffffffffffffff19166020820180517bffffffffffffffffffffffffffffffffffffffffffffffffffffffff838183161783525050505062001ae5565b5050565b6060806060600080606060008060008060008b600073ffffffffffffffffffffffffffffffffffffffff166002600083815260200190815260200160002060009054906101000a900473ffffffffffffffffffffffffffffffffffffffff1673ffffffffffffffffffffffffffffffffffffffff1603620006ba576040517f08c379a0000000000000000000000000000000000000000000000000000000008152600401620006b1906200280c565b60405180910390fd5b6000600260008f815260200190815260200160002060009054906101000a900473ffffffffffffffffffffffffffffffffffffffff1690508073ffffffffffffffffffffffffffffffffffffffff16633e885cfa6040518163ffffffff1660e01b8152600401600060405180830381865afa1580156200073e573d6000803e3d6000fd5b505050506040513d6000823e3d601f19601f82011682018060405250810190620007699190620028ac565b8173ffffffffffffffffffffffffffffffffffffffff1663cfa84dfe6040518163ffffffff1660e01b8152600401600060405180830381865afa158015620007b5573d6000803e3d6000fd5b505050506040513d6000823e3d601f19601f82011682018060405250810190620007e09190620028ac565b8273ffffffffffffffffffffffffffffffffffffffff1663080708b76040518163ffffffff1660e01b8152600401600060405180830381865afa1580156200082c573d6000803e3d6000fd5b505050506040513d6000823e3d601f19601f82011682018060405250810190620008579190620028ac565b8373ffffffffffffffffffffffffffffffffffffffff16630fb3844c6040518163ffffffff1660e01b8152600401602060405180830381865afa158015620008a3573d6000803e3d6000fd5b505050506040513d601f19601f82011682018060405250810190620008c9919062002925565b8473ffffffffffffffffffffffffffffffffffffffff16638299c74c6040518163ffffffff1660e01b8152600401602060405180830381865afa15801562000915573d6000803e3d6000fd5b505050506040513d601f19601f820116820180604052508101906200093b91906200297f565b8573ffffffffffffffffffffffffffffffffffffffff166398c2b8616040518163ffffffff1660e01b8152600401600060405180830381865afa15801562000987573d6000803e3d6000fd5b505050506040513d6000823e3d601f19601f82011682018060405250810190620009b2919062002a6f565b8673ffffffffffffffffffffffffffffffffffffffff1663f85470796040518163ffffffff1660e01b8152600401602060405180830381865afa158015620009fe573d6000803e3d6000fd5b505050506040513d601f19601f8201168201806040525081019062000a24919062002ad7565b8773ffffffffffffffffffffffffffffffffffffffff16635194ec386040518163ffffffff1660e01b8152600401602060405180830381865afa15801562000a70573d6000803e3d6000fd5b505050506040513d601f19601f8201168201806040525081019062000a96919062002ad7565b8873ffffffffffffffffffffffffffffffffffffffff166393cdc2f36040518163ffffffff1660e01b8152600401602060405180830381865afa15801562000ae2573d6000803e3d6000fd5b505050506040513d601f19601f8201168201806040525081019062000b08919062002ad7565b898a73ffffffffffffffffffffffffffffffffffffffff16319c509c509c509c509c509c509c509c509c509c509c50505091939597999b90929496989a50565b60608060606000806000806000808990508073ffffffffffffffffffffffffffffffffffffffff16633e885cfa6040518163ffffffff1660e01b8152600401600060405180830381865afa15801562000ba5573d6000803e3d6000fd5b505050506040513d6000823e3d601f19601f8201168201806040525081019062000bd09190620028ac565b8173ffffffffffffffffffffffffffffffffffffffff1663cfa84dfe6040518163ffffffff1660e01b8152600401600060405180830381865afa15801562000c1c573d6000803e3d6000fd5b505050506040513d6000823e3d601f19601f8201168201806040525081019062000c479190620028ac565b8273ffffffffffffffffffffffffffffffffffffffff1663080708b76040518163ffffffff1660e01b8152600401600060405180830381865afa15801562000c93573d6000803e3d6000fd5b505050506040513d6000823e3d601f19601f8201168201806040525081019062000cbe9190620028ac565b8373ffffffffffffffffffffffffffffffffffffffff16630fb3844c6040518163ffffffff1660e01b8152600401602060405180830381865afa15801562000d0a573d6000803e3d6000fd5b505050506040513d601f19601f8201168201806040525081019062000d30919062002925565b8473ffffffffffffffffffffffffffffffffffffffff16638299c74c6040518163ffffffff1660e01b8152600401602060405180830381865afa15801562000d7c573d6000803e3d6000fd5b505050506040513d601f19601f8201168201806040525081019062000da291906200297f565b8573ffffffffffffffffffffffffffffffffffffffff1663f85470796040518163ffffffff1660e01b8152600401602060405180830381865afa15801562000dee573d6000803e3d6000fd5b505050506040513d601f19601f8201168201806040525081019062000e14919062002ad7565b8673ffffffffffffffffffffffffffffffffffffffff16635194ec386040518163ffffffff1660e01b8152600401602060405180830381865afa15801562000e60573d6000803e3d6000fd5b505050506040513d601f19601f8201168201806040525081019062000e86919062002ad7565b8773ffffffffffffffffffffffffffffffffffffffff166393cdc2f36040518163ffffffff1660e01b8152600401602060405180830381865afa15801562000ed2573d6000803e3d6000fd5b505050506040513d601f19601f8201168201806040525081019062000ef8919062002ad7565b9850985098509850985098509850985050919395975091939597565b600080600181111562000f2c5762000f2b62001ec2565b5b600560009054906101000a900460ff16600181111562000f515762000f5062001ec2565b5b0362000f61576001905062000fb8565b60011515600460008473ffffffffffffffffffffffffffffffffffffffff1673ffffffffffffffffffffffffffffffffffffffff16815260200190815260200160002060009054906101000a900460ff1615151490505b919050565b60026020528060005260406000206000915054906101000a900473ffffffffffffffffffffffffffffffffffffffff1681565b80600073ffffffffffffffffffffffffffffffffffffffff166002600083815260200190815260200160002060009054906101000a900473ffffffffffffffffffffffffffffffffffffffff1673ffffffffffffffffffffffffffffffffffffffff160362001096576040517f08c379a00000000000000000000000000000000000000000000000000000000081526004016200108d906200280c565b60405180910390fd5b60006002600084815260200190815260200160002060009054906101000a900473ffffffffffffffffffffffffffffffffffffffff1690508073ffffffffffffffffffffffffffffffffffffffff1663075d47826040518163ffffffff1660e01b8152600401600060405180830381600087803b1580156200111757600080fd5b505af11580156200112c573d6000803e3d6000fd5b50505050505050565b6060600060015467ffffffffffffffff811115620011585762001157620023a3565b5b604051908082528060200260200182016040528015620011875781602001602082028036833780820191505090505b50905060005b6001548110156200123d57620011a38162001b0e565b6002600082815260200190815260200160002060009054906101000a900473ffffffffffffffffffffffffffffffffffffffff16828281518110620011ed57620011ec62002b09565b5b602002602001019073ffffffffffffffffffffffffffffffffffffffff16908173ffffffffffffffffffffffffffffffffffffffff16815250508080620012349062002b67565b9150506200118d565b508091505090565b6200124f62001bab565b6200125b600062001c30565b565b600360205281600052604060002081815481106200127a57600080fd5b906000526020600020016000915091509054906101000a900473ffffffffffffffffffffffffffffffffffffffff1681565b60008060009054906101000a900473ffffffffffffffffffffffffffffffffffffffff16905090565b620012df62001bab565b60005b8151811015620013775760016004600084848151811062001308576200130762002b09565b5b602002602001015173ffffffffffffffffffffffffffffffffffffffff1673ffffffffffffffffffffffffffffffffffffffff16815260200190815260200160002060006101000a81548160ff02191690831515021790555080806200136e9062002b67565b915050620012e2565b5050565b60008190508073ffffffffffffffffffffffffffffffffffffffff1663075d47826040518163ffffffff1660e01b8152600401600060405180830381600087803b158015620013c957600080fd5b505af1158015620013de573d6000803e3d6000fd5b505050505050565b600083838330604051620013fa9062001d99565b62001409949392919062002bb4565b604051809103906000f08015801562001426573d6000803e3d6000fd5b509050620014348162001cf4565b8060026000600154815260200190815260200160002060006101000a81548173ffffffffffffffffffffffffffffffffffffffff021916908373ffffffffffffffffffffffffffffffffffffffff1602179055507f4196df5545177bff7cc5a8e7d409ae30d345a95b556b2eaf6b727038bef3128e60405160405180910390a16001806000828254620014c8919062002c16565b9250508190555050505050565b60606000600154036200153857600067ffffffffffffffff8111156200150057620014ff620023a3565b5b6040519080825280602002602001820160405280156200152f5781602001602082028036833780820191505090505b50905062001873565b6000828462001548919062002c51565b9050806001541080156200156a5750826001548262001568919062002c9c565b115b15620015c757600067ffffffffffffffff8111156200158e576200158d620023a3565b5b604051908082528060200260200182016040528015620015bd5781602001602082028036833780820191505090505b5091505062001873565b60008160015410620015e95781600154620015e3919062002c9c565b620015ec565b60005b9050600082600154106200161c5760018562001609919062002c9c565b8262001616919062002c16565b62001648565b600154836200162c919062002c9c565b6001866200163b919062002c9c565b62001647919062002c9c565b5b9050620016558162001b0e565b620016608262001b0e565b60006001838362001672919062002c9c565b6200167e919062002c16565b67ffffffffffffffff8111156200169a5762001699620023a3565b5b604051908082528060200260200182016040528015620016c95781602001602082028036833780820191505090505b509050620016d8815162001b0e565b60008383620016e8919062002c9c565b0362001779576002600083815260200190815260200160002060009054906101000a900473ffffffffffffffffffffffffffffffffffffffff168160008151811062001739576200173862002b09565b5b602002602001019073ffffffffffffffffffffffffffffffffffffffff16908173ffffffffffffffffffffffffffffffffffffffff16815250506200186b565b6000806001846200178b919062002c16565b90505b6001856200179d919062002c16565b81106200186857620017af8162001b0e565b60026000600183620017c2919062002c9c565b815260200190815260200160002060009054906101000a900473ffffffffffffffffffffffffffffffffffffffff1683838151811062001807576200180662002b09565b5b602002602001019073ffffffffffffffffffffffffffffffffffffffff16908173ffffffffffffffffffffffffffffffffffffffff168152505060018262001850919062002c16565b915080806200185f9062002cd7565b9150506200178e565b50505b809450505050505b92915050565b6200188362001bab565b80600181111562001899576200189862001ec2565b5b600560006101000a81548160ff02191690836001811115620018c057620018bf62001ec2565b5b021790555050565b60046020528060005260406000206000915054906101000a900460ff1681565b6060600360008373ffffffffffffffffffffffffffffffffffffffff1673ffffffffffffffffffffffffffffffffffffffff168152602001908152602001600020805480602002602001604051908101604052809291908181526020018280548015620019ab57602002820191906000526020600020905b8160009054906101000a900473ffffffffffffffffffffffffffffffffffffffff1673ffffffffffffffffffffffffffffffffffffffff168152602001906001019080831162001960575b50505050509050919050565b620019c162001bab565b600073ffffffffffffffffffffffffffffffffffffffff168173ffffffffffffffffffffffffffffffffffffffff160362001a33576040517f08c379a000000000000000000000000000000000000000000000000000000000815260040162001a2a9062002d7b565b60405180910390fd5b62001a3e8162001c30565b50565b600360008373ffffffffffffffffffffffffffffffffffffffff1673ffffffffffffffffffffffffffffffffffffffff168152602001908152602001600020819080600181540180825580915050600190039060005260206000200160009091909190916101000a81548173ffffffffffffffffffffffffffffffffffffffff021916908373ffffffffffffffffffffffffffffffffffffffff1602179055505050565b60008151905060006a636f6e736f6c652e6c6f679050602083016000808483855afa5050505050565b62001ba88160405160240162001b25919062002d9d565b6040516020818303038152906040527ff82c50f1000000000000000000000000000000000000000000000000000000007bffffffffffffffffffffffffffffffffffffffffffffffffffffffff19166020820180517bffffffffffffffffffffffffffffffffffffffffffffffffffffffff838183161783525050505062001ae5565b50565b62001bb562001d91565b73ffffffffffffffffffffffffffffffffffffffff1662001bd5620012ac565b73ffffffffffffffffffffffffffffffffffffffff161462001c2e576040517f08c379a000000000000000000000000000000000000000000000000000000000815260040162001c259062002e0a565b60405180910390fd5b565b60008060009054906101000a900473ffffffffffffffffffffffffffffffffffffffff169050816000806101000a81548173ffffffffffffffffffffffffffffffffffffffff021916908373ffffffffffffffffffffffffffffffffffffffff1602179055508173ffffffffffffffffffffffffffffffffffffffff168173ffffffffffffffffffffffffffffffffffffffff167f8be0079c531659141344cd1fd0a4f28419497f9722a3daafe3b4186f6b6457e060405160405180910390a35050565b62001d8e8160405160240162001d0b919062002381565b6040516020818303038152906040527f2c2ecbc2000000000000000000000000000000000000000000000000000000007bffffffffffffffffffffffffffffffffffffffffffffffffffffffff19166020820180517bffffffffffffffffffffffffffffffffffffffffffffffffffffffff838183161783525050505062001ae5565b50565b600033905090565b61255d8062002e2d83390190565b6000604051905090565b600080fd5b600080fd5b6000819050919050565b62001dd08162001dbb565b811462001ddc57600080fd5b50565b60008135905062001df08162001dc5565b92915050565b60006020828403121562001e0f5762001e0e62001db1565b5b600062001e1f8482850162001ddf565b91505092915050565b600081519050919050565b600082825260208201905092915050565b60005b8381101562001e6457808201518184015260208101905062001e47565b60008484015250505050565b6000601f19601f8301169050919050565b600062001e8e8262001e28565b62001e9a818562001e33565b935062001eac81856020860162001e44565b62001eb78162001e70565b840191505092915050565b7f4e487b7100000000000000000000000000000000000000000000000000000000600052602160045260246000fd5b6005811062001f055762001f0462001ec2565b5b50565b600081905062001f188262001ef1565b919050565b600062001f2a8262001f08565b9050919050565b62001f3c8162001f1d565b82525050565b6003811062001f565762001f5562001ec2565b5b50565b600081905062001f698262001f42565b919050565b600062001f7b8262001f59565b9050919050565b62001f8d8162001f6e565b82525050565b600081519050919050565b600082825260208201905092915050565b6000819050602082019050919050565b600073ffffffffffffffffffffffffffffffffffffffff82169050919050565b600062001fec8262001fbf565b9050919050565b62001ffe8162001fdf565b82525050565b600062002012838362001ff3565b60208301905092915050565b6000602082019050919050565b6000620020388262001f93565b62002044818562001f9e565b9350620020518362001faf565b8060005b83811015620020885781516200206c888262002004565b975062002079836200201e565b92505060018101905062002055565b5085935050505092915050565b620020a08162001dbb565b82525050565b620020b18162001fdf565b82525050565b6000610160820190508181036000830152620020d4818e62001e81565b90508181036020830152620020ea818d62001e81565b9050818103604083015262002100818c62001e81565b905062002111606083018b62001f31565b62002120608083018a62001f82565b81810360a08301526200213481896200202b565b90506200214560c083018862002095565b6200215460e083018762002095565b6200216461010083018662002095565b62002174610120830185620020a6565b6200218461014083018462002095565b9c9b505050505050505050505050565b6200219f8162001fdf565b8114620021ab57600080fd5b50565b600081359050620021bf8162002194565b92915050565b600060208284031215620021de57620021dd62001db1565b5b6000620021ee84828501620021ae565b91505092915050565b600061010082019050818103600083015262002214818b62001e81565b905081810360208301526200222a818a62001e81565b9050818103604083015262002240818962001e81565b905062002251606083018862001f31565b62002260608083018762001f82565b6200226f60a083018662002095565b6200227e60c083018562002095565b6200228d60e083018462002095565b9998505050505050505050565b60008115159050919050565b620022b1816200229a565b82525050565b6000602082019050620022ce6000830184620022a6565b92915050565b6000620022e18262001fbf565b9050919050565b620022f381620022d4565b82525050565b6000602082019050620023106000830184620022e8565b92915050565b600060208201905081810360008301526200233281846200202b565b905092915050565b6000806040838503121562002354576200235362001db1565b5b60006200236485828601620021ae565b9250506020620023778582860162001ddf565b9150509250929050565b6000602082019050620023986000830184620020a6565b92915050565b600080fd5b7f4e487b7100000000000000000000000000000000000000000000000000000000600052604160045260246000fd5b620023dd8262001e70565b810181811067ffffffffffffffff82111715620023ff57620023fe620023a3565b5b80604052505050565b60006200241462001da7565b9050620024228282620023d2565b919050565b600067ffffffffffffffff821115620024455762002444620023a3565b5b602082029050602081019050919050565b600080fd5b6000620024726200246c8462002427565b62002408565b9050808382526020820190506020840283018581111562002498576200249762002456565b5b835b81811015620024c55780620024b08882620021ae565b8452602084019350506020810190506200249a565b5050509392505050565b600082601f830112620024e757620024e66200239e565b5b8135620024f98482602086016200245b565b91505092915050565b6000602082840312156200251b576200251a62001db1565b5b600082013567ffffffffffffffff8111156200253c576200253b62001db6565b5b6200254a84828501620024cf565b91505092915050565b600080fd5b600067ffffffffffffffff821115620025765762002575620023a3565b5b620025818262001e70565b9050602081019050919050565b82818337600083830152505050565b6000620025b4620025ae8462002558565b62002408565b905082815260208101848484011115620025d357620025d262002553565b5b620025e08482856200258e565b509392505050565b600082601f8301126200260057620025ff6200239e565b5b8135620026128482602086016200259d565b91505092915050565b60008060006060848603121562002637576200263662001db1565b5b600084013567ffffffffffffffff81111562002658576200265762001db6565b5b6200266686828701620025e8565b935050602084013567ffffffffffffffff8111156200268a576200268962001db6565b5b6200269886828701620025e8565b925050604084013567ffffffffffffffff811115620026bc57620026bb62001db6565b5b620026ca86828701620025e8565b9150509250925092565b60008060408385031215620026ee57620026ed62001db1565b5b6000620026fe8582860162001ddf565b9250506020620027118582860162001ddf565b9150509250929050565b6000806040838503121562002735576200273462001db1565b5b60006200274585828601620021ae565b92505060206200275885828601620021ae565b9150509250929050565b600060408201905081810360008301526200277e818562001e81565b90506200278f602083018462002095565b9392505050565b7f506f6f6c2077697468207468697320494420646f6573206e6f7420657869737460008201527f7300000000000000000000000000000000000000000000000000000000000000602082015250565b6000620027f460218362001e33565b9150620028018262002796565b604082019050919050565b600060208201905081810360008301526200282781620027e5565b9050919050565b6000620028456200283f8462002558565b62002408565b90508281526020810184848401111562002864576200286362002553565b5b6200287184828562001e44565b509392505050565b600082601f8301126200289157620028906200239e565b5b8151620028a38482602086016200282e565b91505092915050565b600060208284031215620028c557620028c462001db1565b5b600082015167ffffffffffffffff811115620028e657620028e562001db6565b5b620028f48482850162002879565b91505092915050565b600581106200290b57600080fd5b50565b6000815190506200291f81620028fd565b92915050565b6000602082840312156200293e576200293d62001db1565b5b60006200294e848285016200290e565b91505092915050565b600381106200296557600080fd5b50565b600081519050620029798162002957565b92915050565b60006020828403121562002998576200299762001db1565b5b6000620029a88482850162002968565b91505092915050565b600081519050620029c28162002194565b92915050565b6000620029df620029d98462002427565b62002408565b9050808382526020820190506020840283018581111562002a055762002a0462002456565b5b835b8181101562002a32578062002a1d8882620029b1565b84526020840193505060208101905062002a07565b5050509392505050565b600082601f83011262002a545762002a536200239e565b5b815162002a66848260208601620029c8565b91505092915050565b60006020828403121562002a885762002a8762001db1565b5b600082015167ffffffffffffffff81111562002aa95762002aa862001db6565b5b62002ab78482850162002a3c565b91505092915050565b60008151905062002ad18162001dc5565b92915050565b60006020828403121562002af05762002aef62001db1565b5b600062002b008482850162002ac0565b91505092915050565b7f4e487b7100000000000000000000000000000000000000000000000000000000600052603260045260246000fd5b7f4e487b7100000000000000000000000000000000000000000000000000000000600052601160045260246000fd5b600062002b748262001dbb565b91507fffffffffffffffffffffffffffffffffffffffffffffffffffffffffffffffff820362002ba95762002ba862002b38565b5b600182019050919050565b6000608082019050818103600083015262002bd0818762001e81565b9050818103602083015262002be6818662001e81565b9050818103604083015262002bfc818562001e81565b905062002c0d6060830184620020a6565b95945050505050565b600062002c238262001dbb565b915062002c308362001dbb565b925082820190508082111562002c4b5762002c4a62002b38565b5b92915050565b600062002c5e8262001dbb565b915062002c6b8362001dbb565b925082820262002c7b8162001dbb565b9150828204841483151762002c955762002c9462002b38565b5b5092915050565b600062002ca98262001dbb565b915062002cb68362001dbb565b925082820390508181111562002cd15762002cd062002b38565b5b92915050565b600062002ce48262001dbb565b91506000820362002cfa5762002cf962002b38565b5b600182039050919050565b7f4f776e61626c653a206e6577206f776e657220697320746865207a65726f206160008201527f6464726573730000000000000000000000000000000000000000000000000000602082015250565b600062002d6360268362001e33565b915062002d708262002d05565b604082019050919050565b6000602082019050818103600083015262002d968162002d54565b9050919050565b600060208201905062002db4600083018462002095565b92915050565b7f4f776e61626c653a2063616c6c6572206973206e6f7420746865206f776e6572600082015250565b600062002df260208362001e33565b915062002dff8262002dba565b602082019050919050565b6000602082019050818103600083015262002e258162002de3565b905091905056fe60806040523480156200001157600080fd5b506040516200255d3803806200255d833981810160405281019062000037919062000312565b83600190816200004891906200062c565b5082600290816200005a91906200062c565b5081600390816200006c91906200062c565b506000600460006101000a81548160ff0219169083600481111562000096576200009562000713565b5b02179055506002600460016101000a81548160ff02191690836002811115620000c457620000c362000713565b5b021790555042600881905550806000806101000a81548173ffffffffffffffffffffffffffffffffffffffff021916908373ffffffffffffffffffffffffffffffffffffffff1602179055505050505062000742565b6000604051905090565b600080fd5b600080fd5b600080fd5b600080fd5b6000601f19601f8301169050919050565b7f4e487b7100000000000000000000000000000000000000000000000000000000600052604160045260246000fd5b620001838262000138565b810181811067ffffffffffffffff82111715620001a557620001a462000149565b5b80604052505050565b6000620001ba6200011a565b9050620001c8828262000178565b919050565b600067ffffffffffffffff821115620001eb57620001ea62000149565b5b620001f68262000138565b9050602081019050919050565b60005b838110156200022357808201518184015260208101905062000206565b60008484015250505050565b6000620002466200024084620001cd565b620001ae565b90508281526020810184848401111562000265576200026462000133565b5b6200027284828562000203565b509392505050565b600082601f8301126200029257620002916200012e565b5b8151620002a48482602086016200022f565b91505092915050565b600073ffffffffffffffffffffffffffffffffffffffff82169050919050565b6000620002da82620002ad565b9050919050565b620002ec81620002cd565b8114620002f857600080fd5b50565b6000815190506200030c81620002e1565b92915050565b600080600080608085870312156200032f576200032e62000124565b5b600085015167ffffffffffffffff81111562000350576200034f62000129565b5b6200035e878288016200027a565b945050602085015167ffffffffffffffff81111562000382576200038162000129565b5b62000390878288016200027a565b935050604085015167ffffffffffffffff811115620003b457620003b362000129565b5b620003c2878288016200027a565b9250506060620003d587828801620002fb565b91505092959194509250565b600081519050919050565b7f4e487b7100000000000000000000000000000000000000000000000000000000600052602260045260246000fd5b600060028204905060018216806200043457607f821691505b6020821081036200044a5762000449620003ec565b5b50919050565b60008190508160005260206000209050919050565b60006020601f8301049050919050565b600082821b905092915050565b600060088302620004b47fffffffffffffffffffffffffffffffffffffffffffffffffffffffffffffffff8262000475565b620004c0868362000475565b95508019841693508086168417925050509392505050565b6000819050919050565b6000819050919050565b60006200050d620005076200050184620004d8565b620004e2565b620004d8565b9050919050565b6000819050919050565b6200052983620004ec565b62000541620005388262000514565b84845462000482565b825550505050565b600090565b6200055862000549565b620005658184846200051e565b505050565b5b818110156200058d57620005816000826200054e565b6001810190506200056b565b5050565b601f821115620005dc57620005a68162000450565b620005b18462000465565b81016020851015620005c1578190505b620005d9620005d08562000465565b8301826200056a565b50505b505050565b600082821c905092915050565b60006200060160001984600802620005e1565b1980831691505092915050565b60006200061c8383620005ee565b9150826002028217905092915050565b6200063782620003e1565b67ffffffffffffffff81111562000653576200065262000149565b5b6200065f82546200041b565b6200066c82828562000591565b600060209050601f831160018114620006a457600084156200068f578287015190505b6200069b85826200060e565b8655506200070b565b601f198416620006b48662000450565b60005b82811015620006de57848901518255600182019150602085019450602081019050620006b7565b86831015620006fe5784890151620006fa601f891682620005ee565b8355505b6001600288020188555050505b505050505050565b7f4e487b7100000000000000000000000000000000000000000000000000000000600052602160045260246000fd5b611e0b80620007526000396000f3fe60806040526004361061010d5760003560e01c80635194ec381161009557806393cdc2f31161006457806393cdc2f31461036057806398c2b8611461038b578063cfa84dfe146103b6578063f8547079146103e1578063fd9d497f1461040c57610153565b80635194ec38146102b1578063561dd002146102dc5780637365870b146103195780638299c74c1461033557610153565b80630fb3844c116100dc5780630fb3844c146101f057806312065fe01461021b5780633e885cfa146102465780634e71d92d146102715780634f896d4f1461028857610153565b8063075d478214610158578063080708b71461016f5780630a710b881461019a5780630e8cd9ea146101c557610153565b36610153576101516040518060400160405280600481526020017f594f594f0000000000000000000000000000000000000000000000000000000081525047610449565b005b600080fd5b34801561016457600080fd5b5061016d6104e5565b005b34801561017b57600080fd5b50610184610519565b604051610191919061156c565b60405180910390f35b3480156101a657600080fd5b506101af6105a7565b6040516101bc919061176a565b60405180910390f35b3480156101d157600080fd5b506101da610761565b6040516101e791906117cd565b60405180910390f35b3480156101fc57600080fd5b50610205610785565b6040516102129190611830565b60405180910390f35b34801561022757600080fd5b50610230610798565b60405161023d919061185a565b60405180910390f35b34801561025257600080fd5b5061025b6107a0565b604051610268919061156c565b60405180910390f35b34801561027d57600080fd5b5061028661082e565b005b34801561029457600080fd5b506102af60048036038101906102aa91906118a6565b610994565b005b3480156102bd57600080fd5b506102c6610afd565b6040516102d3919061185a565b60405180910390f35b3480156102e857600080fd5b5061030360048036038101906102fe91906118a6565b610b03565b60405161031091906117cd565b60405180910390f35b610333600480360381019061032e91906118a6565b610b42565b005b34801561034157600080fd5b5061034a610dc2565b604051610357919061191b565b60405180910390f35b34801561036c57600080fd5b50610375610dd5565b604051610382919061185a565b60405180910390f35b34801561039757600080fd5b506103a0610ddb565b6040516103ad91906119f4565b60405180910390f35b3480156103c257600080fd5b506103cb610e69565b6040516103d8919061156c565b60405180910390f35b3480156103ed57600080fd5b506103f6610ef7565b604051610403919061185a565b60405180910390f35b34801561041857600080fd5b50610433600480360381019061042e9190611a16565b610efd565b604051610440919061176a565b60405180910390f35b6104e1828260405160240161045f929190611a56565b6040516020818303038152906040527fb60e72cc000000000000000000000000000000000000000000000000000000007bffffffffffffffffffffffffffffffffffffffffffffffffffffffff19166020820180517bffffffffffffffffffffffffffffffffffffffffffffffffffffffff83818316178352505050506113ce565b5050565b6001600460006101000a81548160ff0219169083600481111561050b5761050a6115ba565b5b021790555042600781905550565b6003805461052690611ab5565b80601f016020809104026020016040519081016040528092919081815260200182805461055290611ab5565b801561059f5780601f106105745761010080835404028352916020019161059f565b820191906000526020600020905b81548152906001019060200180831161058257829003601f168201915b505050505081565b6060600060068054905067ffffffffffffffff8111156105ca576105c9611ae6565b5b60405190808252806020026020018201604052801561060357816020015b6105f0611490565b8152602001906001900390816105e85790505b50905060005b60068054905081101561075957600560006006838154811061062e5761062d611b15565b5b9060005260206000200160009054906101000a900473ffffffffffffffffffffffffffffffffffffffff1673ffffffffffffffffffffffffffffffffffffffff1673ffffffffffffffffffffffffffffffffffffffff1681526020019081526020016000206040518060800160405290816000820160009054906101000a900460ff1660018111156106c3576106c26115ba565b5b60018111156106d5576106d46115ba565b5b8152602001600182015481526020016002820160009054906101000a900460ff166002811115610708576107076115ba565b5b600281111561071a576107196115ba565b5b815260200160038201548152505082828151811061073b5761073a611b15565b5b6020026020010181905250808061075190611b73565b915050610609565b508091505090565b60008054906101000a900473ffffffffffffffffffffffffffffffffffffffff1681565b600460009054906101000a900460ff1681565b600047905090565b600180546107ad90611ab5565b80601f01602080910402602001604051908101604052809291908181526020018280546107d990611ab5565b80156108265780601f106107fb57610100808354040283529160200191610826565b820191906000526020600020905b81548152906001019060200180831161080957829003601f168201915b505050505081565b600460019054906101000a900460ff1660028111156108505761084f6115ba565b5b6001811115610862576108616115ba565b5b6001811115610874576108736115ba565b5b600560003373ffffffffffffffffffffffffffffffffffffffff1673ffffffffffffffffffffffffffffffffffffffff16815260200190815260200160002060000160009054906101000a900460ff1660018111156108d6576108d56115ba565b5b03610992576000803373ffffffffffffffffffffffffffffffffffffffff166509184e72a00060405161090890611bec565b60006040518083038185875af1925050503d8060008114610945576040519150601f19603f3d011682016040523d82523d6000602084013e61094a565b606091505b50915091508161098f576040517f08c379a000000000000000000000000000000000000000000000000000000000815260040161098690611c4d565b60405180910390fd5b50505b565b6002600460006101000a81548160ff021916908360048111156109ba576109b96115ba565b5b02179055508060028111156109d2576109d16115ba565b5b600460016101000a81548160ff021916908360028111156109f6576109f56115ba565b5b021790555060008060008054906101000a900473ffffffffffffffffffffffffffffffffffffffff1673ffffffffffffffffffffffffffffffffffffffff16633b9aca00604051610a4690611bec565b60006040518083038185875af1925050503d8060008114610a83576040519150601f19603f3d011682016040523d82523d6000602084013e610a88565b606091505b509150915081610acd576040517f08c379a0000000000000000000000000000000000000000000000000000000008152600401610ac490611c4d565b60405180910390fd5b6003600460006101000a81548160ff02191690836004811115610af357610af26115ba565b5b0217905550505050565b60075481565b60068181548110610b1357600080fd5b906000526020600020016000915054906101000a900473ffffffffffffffffffffffffffffffffffffffff1681565b6001610b83576040517f08c379a0000000000000000000000000000000000000000000000000000000008152600401610b7a90611cb9565b60405180910390fd5b60006040518060800160405280836001811115610ba357610ba26115ba565b5b6001811115610bb557610bb46115ba565b5b815260200134815260200160006002811115610bd457610bd36115ba565b5b8152602001428152509050600181604001906002811115610bf857610bf76115ba565b5b90816002811115610c0c57610c0b6115ba565b5b815250506006339080600181540180825580915050600190039060005260206000200160009091909190916101000a81548173ffffffffffffffffffffffffffffffffffffffff021916908373ffffffffffffffffffffffffffffffffffffffff16021790555080600560003373ffffffffffffffffffffffffffffffffffffffff1673ffffffffffffffffffffffffffffffffffffffff16815260200190815260200160002060008201518160000160006101000a81548160ff02191690836001811115610cde57610cdd6115ba565b5b02179055506020820151816001015560408201518160020160006101000a81548160ff02191690836002811115610d1857610d176115ba565b5b02179055506060820151816003015590505060008060009054906101000a900473ffffffffffffffffffffffffffffffffffffffff1690508073ffffffffffffffffffffffffffffffffffffffff1663f8a66b0933306040518363ffffffff1660e01b8152600401610d8b929190611cd9565b600060405180830381600087803b158015610da557600080fd5b505af1158015610db9573d6000803e3d6000fd5b50505050505050565b600460019054906101000a900460ff1681565b60095481565b60606006805480602002602001604051908101604052809291908181526020018280548015610e5f57602002820191906000526020600020905b8160009054906101000a900473ffffffffffffffffffffffffffffffffffffffff1673ffffffffffffffffffffffffffffffffffffffff1681526020019060010190808311610e15575b5050505050905090565b60028054610e7690611ab5565b80601f0160208091040260200160405190810160405280929190818152602001828054610ea290611ab5565b8015610eef5780601f10610ec457610100808354040283529160200191610eef565b820191906000526020600020905b815481529060010190602001808311610ed257829003601f168201915b505050505081565b60085481565b60606000600680549050905060008103610f6e57600067ffffffffffffffff811115610f2c57610f2b611ae6565b5b604051908082528060200260200182016040528015610f6557816020015b610f52611490565b815260200190600190039081610f4a5790505b509150506113c8565b60008385610f7c9190611d02565b90508082108015610f975750838282610f959190611d44565b115b15610ffa57600067ffffffffffffffff811115610fb757610fb6611ae6565b5b604051908082528060200260200182016040528015610ff057816020015b610fdd611490565b815260200190600190039081610fd55790505b50925050506113c8565b600081831061101457818361100f9190611d44565b611017565b60005b9050600082841061103f5760018661102f9190611d44565b8261103a9190611d78565b611063565b838361104b9190611d44565b6001876110589190611d44565b6110629190611d44565b5b905061106e816113f7565b611077826113f7565b6000600183836110879190611d44565b6110919190611d78565b67ffffffffffffffff8111156110aa576110a9611ae6565b5b6040519080825280602002602001820160405280156110e357816020015b6110d0611490565b8152602001906001900390816110c85790505b509050600083836110f49190611d44565b0361122f57600560006006848154811061111157611110611b15565b5b9060005260206000200160009054906101000a900473ffffffffffffffffffffffffffffffffffffffff1673ffffffffffffffffffffffffffffffffffffffff1673ffffffffffffffffffffffffffffffffffffffff1681526020019081526020016000206040518060800160405290816000820160009054906101000a900460ff1660018111156111a6576111a56115ba565b5b60018111156111b8576111b76115ba565b5b8152602001600182015481526020016002820160009054906101000a900460ff1660028111156111eb576111ea6115ba565b5b60028111156111fd576111fc6115ba565b5b81526020016003820154815250508160008151811061121f5761121e611b15565b5b60200260200101819052506113bf565b60008060018461123f9190611d78565b90505b60018561124f9190611d78565b81106113bc5761125e816113f7565b6005600060066001846112719190611d44565b8154811061128257611281611b15565b5b9060005260206000200160009054906101000a900473ffffffffffffffffffffffffffffffffffffffff1673ffffffffffffffffffffffffffffffffffffffff1673ffffffffffffffffffffffffffffffffffffffff1681526020019081526020016000206040518060800160405290816000820160009054906101000a900460ff166001811115611317576113166115ba565b5b6001811115611329576113286115ba565b5b8152602001600182015481526020016002820160009054906101000a900460ff16600281111561135c5761135b6115ba565b5b600281111561136e5761136d6115ba565b5b815260200160038201548152505083838151811061138f5761138e611b15565b5b60200260200101819052506001826113a79190611d78565b915080806113b490611dac565b915050611242565b50505b80955050505050505b92915050565b60008151905060006a636f6e736f6c652e6c6f679050602083016000808483855afa5050505050565b61148d8160405160240161140b919061185a565b6040516020818303038152906040527ff82c50f1000000000000000000000000000000000000000000000000000000007bffffffffffffffffffffffffffffffffffffffffffffffffffffffff19166020820180517bffffffffffffffffffffffffffffffffffffffffffffffffffffffff83818316178352505050506113ce565b50565b6040518060800160405280600060018111156114af576114ae6115ba565b5b815260200160008152602001600060028111156114cf576114ce6115ba565b5b8152602001600081525090565b600081519050919050565b600082825260208201905092915050565b60005b838110156115165780820151818401526020810190506114fb565b60008484015250505050565b6000601f19601f8301169050919050565b600061153e826114dc565b61154881856114e7565b93506115588185602086016114f8565b61156181611522565b840191505092915050565b600060208201905081810360008301526115868184611533565b905092915050565b600081519050919050565b600082825260208201905092915050565b6000819050602082019050919050565b7f4e487b7100000000000000000000000000000000000000000000000000000000600052602160045260246000fd5b600281106115fa576115f96115ba565b5b50565b600081905061160b826115e9565b919050565b600061161b826115fd565b9050919050565b61162b81611610565b82525050565b6000819050919050565b61164481611631565b82525050565b6003811061165b5761165a6115ba565b5b50565b600081905061166c8261164a565b919050565b600061167c8261165e565b9050919050565b61168c81611671565b82525050565b6080820160008201516116a86000850182611622565b5060208201516116bb602085018261163b565b5060408201516116ce6040850182611683565b5060608201516116e1606085018261163b565b50505050565b60006116f38383611692565b60808301905092915050565b6000602082019050919050565b60006117178261158e565b6117218185611599565b935061172c836115aa565b8060005b8381101561175d57815161174488826116e7565b975061174f836116ff565b925050600181019050611730565b5085935050505092915050565b60006020820190508181036000830152611784818461170c565b905092915050565b600073ffffffffffffffffffffffffffffffffffffffff82169050919050565b60006117b78261178c565b9050919050565b6117c7816117ac565b82525050565b60006020820190506117e260008301846117be565b92915050565b600581106117f9576117f86115ba565b5b50565b600081905061180a826117e8565b919050565b600061181a826117fc565b9050919050565b61182a8161180f565b82525050565b60006020820190506118456000830184611821565b92915050565b61185481611631565b82525050565b600060208201905061186f600083018461184b565b92915050565b600080fd5b61188381611631565b811461188e57600080fd5b50565b6000813590506118a08161187a565b92915050565b6000602082840312156118bc576118bb611875565b5b60006118ca84828501611891565b91505092915050565b600381106118e4576118e36115ba565b5b50565b60008190506118f5826118d3565b919050565b6000611905826118e7565b9050919050565b611915816118fa565b82525050565b6000602082019050611930600083018461190c565b92915050565b600081519050919050565b600082825260208201905092915050565b6000819050602082019050919050565b61196b816117ac565b82525050565b600061197d8383611962565b60208301905092915050565b6000602082019050919050565b60006119a182611936565b6119ab8185611941565b93506119b683611952565b8060005b838110156119e75781516119ce8882611971565b97506119d983611989565b9250506001810190506119ba565b5085935050505092915050565b60006020820190508181036000830152611a0e8184611996565b905092915050565b60008060408385031215611a2d57611a2c611875565b5b6000611a3b85828601611891565b9250506020611a4c85828601611891565b9150509250929050565b60006040820190508181036000830152611a708185611533565b9050611a7f602083018461184b565b9392505050565b7f4e487b7100000000000000000000000000000000000000000000000000000000600052602260045260246000fd5b60006002820490506001821680611acd57607f821691505b602082108103611ae057611adf611a86565b5b50919050565b7f4e487b7100000000000000000000000000000000000000000000000000000000600052604160045260246000fd5b7f4e487b7100000000000000000000000000000000000000000000000000000000600052603260045260246000fd5b7f4e487b7100000000000000000000000000000000000000000000000000000000600052601160045260246000fd5b6000611b7e82611631565b91507fffffffffffffffffffffffffffffffffffffffffffffffffffffffffffffffff8203611bb057611baf611b44565b5b600182019050919050565b600081905092915050565b50565b6000611bd6600083611bbb565b9150611be182611bc6565b600082019050919050565b6000611bf782611bc9565b9150819050919050565b7f4661696c656420746f2073656e64204574686572000000000000000000000000600082015250565b6000611c376014836114e7565b9150611c4282611c01565b602082019050919050565b60006020820190508181036000830152611c6681611c2a565b9050919050565b7f596f752063616e206e6f7420626574206f6e207468697320706f6f6c00000000600082015250565b6000611ca3601c836114e7565b9150611cae82611c6d565b602082019050919050565b60006020820190508181036000830152611cd281611c96565b9050919050565b6000604082019050611cee60008301856117be565b611cfb60208301846117be565b9392505050565b6000611d0d82611631565b9150611d1883611631565b9250828202611d2681611631565b91508282048414831517611d3d57611d3c611b44565b5b5092915050565b6000611d4f82611631565b9150611d5a83611631565b9250828203905081811115611d7257611d71611b44565b5b92915050565b6000611d8382611631565b9150611d8e83611631565b9250828201905080821115611da657611da5611b44565b5b92915050565b6000611db782611631565b915060008203611dca57611dc9611b44565b5b60018203905091905056fea2646970667358221220dcdc19e6c0a9a5c47934016b1477cfda7bbd47688221c703cf037d5226dcb1a264736f6c63430008110033a264697066735822122006d09c7407b855a997cbac064fb916237d40e3540aa81c8e6f7bcd96f82406c064736f6c63430008110033",
  "linkReferences": {},
  "deployedLinkReferences": {}
}